:1000000045C0000058C0000056C0000054C00000A9
:1000100052C0000050C000004EC000004CC00000A4
:100020004AC0000048C0000046C0000044C00000B4
:1000300042C0000040C000003EC000003CC00000C4
:100040003AC0000038C0000036C0000034C00000D4
:1000500032C0000030C000002EC000002CC00000E4
:100060002AC0000028C0000026C0000024C00000F4
:1000700022C0000020C000001EC000001CC0000004
:100080001AC0000018C0000016C0000011241FBED6
:10009000CFEFD0E1DEBFCDBF11E0A0E0B1E0E0E8FE
:1000A000F1E000E00BBF02C007900D92AA30B1074B
:1000B000D9F71DD063C0A4CF2F923F9225B32F60F4
:1000C00025BB45B3019721E030E0F90102C0EE0FF6
:1000D000FF1F8A95E2F7CF018095842385BBF1014C
:1000E000E60FF71F808182BB3F902F900895CF933A
:1000F000DF93CDB7DEB72A970FB6F894DEBF0FBEF9
:10010000CDBF8AE0E0E0F1E0DE01119601900D92B2
:100110008A95E1F78FEF81BB8FE084BBCE0101961A
:100120001C0161E070E081E090E0C6DF8FE19EE4B9
:100130000197F1F700C0000062E070E082E090E01B
:10014000BBDF8FE19EE40197F1F700C0000063E0A0
:1001500070E083E090E0B0DF8FE19EE40197F1F77B
:1001600000C0000064E070E084E090E0A5DF8FE173
:100170009EE40197F1F700C00000D0CFF894FFCFC4
:0A0180003F065B4F666D7D277F6729
:00000001FF
