:1000000045C0000060C000005EC000005CC0000091
:100010005AC0000058C0000056C0000054C0000084
:1000200052C0000050C000004EC000004CC0000094
:100030004AC0000048C0000046C0000044C00000A4
:1000400042C0000040C000003EC000003CC00000B4
:100050003AC0000038C0000036C0000034C00000C4
:1000600032C0000030C000002EC000002CC00000D4
:100070002AC0000028C0000026C0000024C00000E4
:1000800022C0000020C000001EC0000011241FBEBE
:10009000CFEFD0E1DEBFCDBF11E0A0E0B1E0ECE3F7
:1000A000F3E000E00BBF02C007900D92AA31B10748
:1000B000D9F721E0AAE1B1E001C01D92AF31B2074A
:1000C000E1F71BD039C19CCF97B1906497B996B135
:1000D000976096B996B1906896B996B1906296B9C4
:1000E00097B1907E892B87B986B1806486B90895CF
:1000F000349BFECF84B195B1089521E330E044E311
:1001000050E062E370E085E390E00BD080E0DCDF5C
:10011000EFDFAC01990F660B770B84E090E06AD0BB
:10012000F7CF9093070180930601709305016093C8
:100130000401509303014093020130930101209385
:1001400000018FE0FA018083E0910001F09101014C
:100150008FEF80830895E0910601F09107012081DF
:100160002F602083E0910601F091070123E030E049
:10017000281B390B81E090E002C0880F991F2A9557
:10018000E2F7908189238083E0910401F0910501D9
:10019000609560838FE39FE10197F1F700C0000055
:1001A0000895EF92FF920F931F93CF93DF938C01EB
:1001B0007B01C0E0D0E00AC0C017D10731F0F701E1
:1001C000EC0FFD1F6081CE01C6DF219680910801F2
:1001D00090910901C817D9077CF38FE39FE101973C
:1001E000F1F700C00000DF91CF911F910F91FF90B8
:1001F000EF9008954F925F926F927F928F929F92AD
:10020000AF92BF92CF92DF92EF92FF92CF93DF93A4
:10021000CDB7DEB72A970FB6F894DEBF0FBECDBFBD
:100220009A8789874A015B01CB01BA0128EE33E046
:1002300040E050E05FD00F2EFAE0CF2ED12CE12C21
:10024000F12CF02DCA01B901A701960153D06983A1
:100250007A838B839C83C501B40124E630E040E0BF
:1002600050E048D0CA01B901A701960143D02B0143
:100270003C01C501B401A70196013CD06D837E838A
:100280008F839887CA01B901A701960133D0ED8108
:10029000FE81E65FFE4F2081EAE1F1E02083DB0191
:1002A000A65FBE4F8C918183D201A65FBE4F8C9119
:1002B0008283A981BA81A65FBE4F8C918383BF01DF
:1002C00089859A856EDF8AE191E02A960FB6F894C7
:1002D000DEBF0FBECDBFDF91CF91FF90EF90DF90DB
:1002E000CF90BF90AF909F908F907F906F905F90D6
:1002F0004F900895A1E21A2EAA1BBB1BFD010DC051
:10030000AA1FBB1FEE1FFF1FA217B307E407F507C5
:1003100020F0A21BB30BE40BF50B661F771F881FA1
:10032000991F1A9469F760957095809590959B0137
:0C033000AC01BD01CF010895F894FFCF8F
:10033C0037003A0038003B0004003F065B4F666D07
:0A034C007D277F67777C585E79718A
:00000001FF
