S01400007465737430342D54696D65722E73726563BE
S113000045C0000060C000005EC000005CC000008D
S11300105AC000008FC10000C9C10000ECC100003B
S113002052C0000050C000004EC000004CC0000090
S11300304AC0000048C0000046C0000044C00000A0
S11300401EC1000040C000003EC000003CC00000D3
S11300503AC0000038C0000036C0000034C00000C0
S113006032C0000030C000002EC000002CC00000D0
S11300702AC0000028C0000026C0000024C00000E0
S113008022C0000020C000001EC0000011241FBEBA
S1130090CFEFD0E1DEBFCDBF11E0A0E0B1E0EAE6F2
S11300A0F6E000E00BBF02C007900D92AA31B10741
S11300B0D9F721E0AAE1B1E001C01D92A733B2074C
S11300C0E1F702D0D0C29CCF21E330E044E350E01A
S11300D062E370E085E390E0B3D181E08ABB12B8BB
S11300E080E789BF8AE28ABF87B7816087BF84E0DF
S11300F083BF8FB780688FBF789480912E019091D1
S11301002F01A0913001B09131010097A140B105B8
S113011040F010922E0110922F0110923001109293
S1130120310140912E0150912F0160913001709165
S1130130310184E090E0EDD180912201909123017E
S1130140A0912401B09125010197A105B10509F001
S113015060C010921A0110921B0110921C0110929F
S11301601D0132C040911A0150911B0160911C0184
S113017070911D0188E592E0489F8001499F100D10
S1130180589F100D1124C0E0D0E01BC0B80184E0DA
S113019090E0BFD18FEF93ED20E381509040204059
S11301A0E1F700C00000B80183E090E0B2D18FEF26
S11301B093ED20E3815090402040E1F700C000001F
S11301C02196C931D10514F3809122019091230124
S11301D0A0912401B09125010197A105B10509F46D
S11301E0C1CF10922601109227011092280110927B
S11301F029011092220110922301109224011092DD
S1130200250110922E0110922F01109230011092AC
S1130210310180911E0190911F01A0912001B091A4
S11302202101892B8A2B8B2B09F467CF109226018D
S11302301092270110922801109229011092220194
S113024010922301109224011092250110921E0194
S113025010921F01109220011092210110922E0180
S113026010922F01109230011092310110922A0144
S113027010922B0110922C0110922D013ECF1F924F
S11302800F920FB60F9211242F938F939F93AF93D6
S1130290BF938091260190912701A0912801B091EC
S11302A02901892B8A2B8B2BD9F180912A019091DA
S11302B02B01A0912C01B0912D010196A11DB11D1E
S11302C080932A0190932B01A0932C01B0932D01CC
S11302D080912A0190912B01A0912C01B0912D01C4
S11302E0883E9340A105B105D8F080912E019091EC
S11302F02F01A0913001B09131010196A11DB11DD2
S113030080932E0190932F01A0933001B09331017B
S113031010922A0110922B0110922C0110922D019F
S1130320BF91AF919F918F912F910F900FBE0F901E
S11303301F9018951F920F920FB60F9211248F934E
S11303409F93AF93BF938091260190912701A09131
S11303502801B09129010196A11DB11D8170992731
S1130360AA27BB278093260190932701A0932801F5
S1130370B093290180911A0190911B01A0911C0155
S1130380B0911D010196A11DB11D80931A01909396
S11303901B01A0931C01B0931D01BF91AF919F91CC
S11303A08F910F900FBE0F901F9018951F920F9270
S11303B00FB60F9211248F939F93AF93BF938091A5
S11303C0220190912301A0912401B091250101966D
S11303D0A11DB11D8093220190932301A0932401B8
S11303E0B0932501BF91AF919F918F910F900FBE54
S11303F00F901F9018951F920F920FB60F92112411
S11304008F939F93AF93BF9380911E0190911F018F
S1130410A0912001B09121010196A11DB11D8093ED
S11304201E0190931F01A0932001B0932101BF915D
S1130430AF919F918F910F900FBE0F901F901895C1
S11304409093070180930601709305016093040162
S11304505093030140930201309301012093000162
S11304608FE0FA018083E0910001F09101018FEFA8
S113047080830895E0910601F091070120812F60A7
S11304802083E0910601F091070123E030E0281B6E
S1130490390B81E090E002C0880F991F2A95E2F79A
S11304A0908189238083E0910401F0910501609596
S11304B060838FE39FE10197F1F700C00000089586
S11304C0EF92FF920F931F93CF93DF938C017B01E5
S11304D0C0E0D0E00AC0C017D10731F0F701EC0F3B
S11304E0FD1F6081CE01C6DF2196809108019091A5
S11304F00901C817D9077CF38FE39FE10197F1F74E
S113050000C00000DF91CF911F910F91FF90EF90F9
S113051008954F925F926F927F928F929F92AF92C3
S1130520BF92CF92DF92EF92FF92CF93DF93CDB73A
S1130530DEB72A970FB6F894DEBF0FBECDBF9A87F9
S113054089874A015B01CB01BA0128E532E040E02A
S113055050E067D00F2EF6E04F2E512C612C712CF9
S1130560F02DCA01B901A30192015BD069837A839A
S11305708B839C83C501B4012CE330E040E050E060
S113058050D00F2EFAE0CF2ED12CE12CF12CF02DEF
S1130590CA01B901A701960144D06D837E838F837C
S11305A09887C501B401A70196013BD04B015C01BA
S11305B0CA01B901A301920134D0F401E65FFE4FF0
S11305C02081E2E3F1E02083DB01A65FBE4F8C9142
S11305D08183AD81BE81A65FBE4F8C91805882839A
S11305E0A981BA81A65FBE4F8C918383BF0189859F
S11305F09A8566DF82E391E02A960FB6F894DEBF0F
S11306000FBECDBFDF91CF91FF90EF90DF90CF90E1
S1130610BF90AF909F908F907F906F905F904F901E
S11306200895A1E21A2EAA1BBB1BFD010DC0AA1F2F
S1130630BB1FEE1FFF1FA217B307E407F50720F047
S1130640A21BB30BE40BF50B661F771F881F991FC2
S11306501A9469F760957095809590959B01AC010B
S10D0660BD01CF010895F894FFCF07
S113066A37003A0038003B0004003F065B4F666DD2
S10D067A7D277F67777C585E797155
S9030000FC
