:1000000045C0000060C000005EC000005CC0000091
:100010005AC0000084C10000A1C10000B6C10000A8
:1000200052C0000050C000004EC000004CC0000094
:100030004AC0000048C0000046C0000044C00000A4
:1000400042C0000040C000003EC000003CC00000B4
:100050003AC0000038C0000036C0000034C00000C4
:1000600032C0000030C000002EC000002CC00000D4
:100070002AC0000028C0000026C0000024C00000E4
:1000800022C0000020C000001EC0000011241FBEBE
:10009000CFEFD0E1DEBFCDBF11E0A0E0B1E0E0E006
:1000A000F4E000E00BBF02C007900D92A031B10751
:1000B000D9F721E0A0E1B1E001C01D92AB31B20758
:1000C000E1F7BCD09BC19CCF25B32F6025BB45B3C6
:1000D00023E030E0281B390B81E090E002C0880F5C
:1000E000991F2A95E2F7842385BB609562BB8FE355
:1000F0009FE10197F1F700C0000008950F931F934F
:10010000CF93DF938C01C0E0D0E007C0F801EC0F83
:10011000FD1F6081CE01D8DF2196C430D105B4F334
:100120008FE39FE10197F1F700C00000DF91CF91CD
:100130001F910F9108954F925F926F927F928F92CD
:100140009F92AF92BF92CF92DF92EF92FF92CF93A6
:10015000DF93CDB7DEB728970FB6F894DEBF0FBE9A
:10016000CDBF4B015C0128EE33E040E050E024D1EC
:100170000F2EFAE0CF2ED12CE12CF12CF02DCA015C
:10018000B901A701960118D12B013C01C501B401A9
:1001900024E630E040E050E00FD1CA01B901A701E8
:1001A00096010AD169837A838B839C83C501B4014C
:1001B000A701960101D16D837E838F839887CA0141
:1001C000B901A7019601F8D0ED81FE81E050FF4F03
:1001D0002081E6E1F1E02083DB01A050BF4F8C914C
:1001E0008183A981BA81A050BF4F8C9180588283AE
:1001F0004114510419F41092190106C0F201E050A3
:10020000FF4F80818093190186E191E077DF86E1DD
:1002100091E028960FB6F894DEBF0FBECDBFDF91F8
:10022000CF91FF90EF90DF90CF90BF90AF909F90D5
:100230008F907F906F905F904F9008958FEF81BB6C
:100240008FE084BB81E08ABB12B880E789BF8AE275
:100250008ABF8FB780688FBF78940F2EF0E1EF2EA2
:10026000F7E2FF2EF02D00E010E080911401909154
:100270001501019711F40F5F1F4FB801012E000CFB
:10028000880B990B58DF809112019091130101970F
:1002900059F410921501109214011092130110924A
:1002A0001201780100E010E0E016F10624F58BB3AE
:1002B00081608BBB2FEF89E698E121508040904010
:1002C000E1F700C000008BB38E7F8BBBC0E0D0E0B5
:1002D0000DC0B801012E000C880B990B2CDF8FE3A9
:1002E0009CE90197F1F700C000002196C931D105C2
:1002F00084F3015011098091100190911101892B13
:1003000009F4B3CF10921501109214011092130149
:100310001092120110921101109210019ECF1F92A3
:100320000F920FB60F9211248F939F938091140117
:1003300090911501019681709078992324F401978A
:100340008E6F9F6F019690931501809314019F917A
:100350008F910F900FBE0F901F9018951F920F92C4
:100360000FB60F9211248F939F9380911201909159
:100370001301019690931301809312019F918F9125
:100380000F900FBE0F901F9018951F920F920FB6EF
:100390000F9211248F939F938091100190911101DE
:1003A000019690931101809310019F918F910F906E
:1003B0000FBE0F901F901895A1E21A2EAA1BBB1B0F
:1003C000FD010DC0AA1FBB1FEE1FFF1FA217B30721
:1003D000E407F50720F0A21BB30BE40BF50B661F37
:1003E000771F881F991F1A9469F7609570958095FB
:1003F00090959B01AC01BD01CF010895F894FFCF0A
:100400003F065B4F666D7D277F67777C585E79710D
:00000001FF
