S00E00007465737430322E73726563F4
S113000045C0000060C000005EC000005CC000008D
S11300105AC0000058C0000056C0000054C0000080
S113002053C0000050C000004EC000004CC000008F
S11300304AC0000048C0000046C0000044C00000A0
S113004042C0000040C000003EC000003CC00000B0
S11300503AC0000038C0000036C0000034C00000C0
S113006032C0000030C000002EC000002CC00000D0
S11300702AC0000028C0000026C0000024C00000E0
S113008022C0000020C000001EC0000011241FBEBA
S1130090CFEFD0E1DEBFCDBF11E0A0E0B1E0ECE4F2
S11300A0F3E000E00BBF02C007900D92A031B1074E
S11300B0D9F721E0A0E1B1E001C01D92A731B20758
S11300C0E1F7D3D041C19CCF1F920F920FB60F928C
S11300D011248F939F9380911001909111010196A7
S11300E090931101809310019F918F910F900FBEF7
S11300F00F901F90189580E889BF80EC8ABF789490
S1130100089525B32F6025BB45B323E030E0281BB9
S1130110390B81E090E002C0880F991F2A95E2F71D
S1130120842385BB609562BB8FE39FE10197F1F760
S113013000C0000008950F931F93CF93DF938C01A9
S1130140C0E0D0E007C0F801EC0FFD1F6081CE01D4
S1130150D8DF2196C430D105B4F3DF91CF911F913C
S11301600F9108954F925F926F927F928F929F9218
S1130170AF92BF92CF92DF92EF92FF92CF93DF9331
S1130180CDB7DEB728970FB6F894DEBF0FBECDBF4C
S11301904B015C0128EE33E040E050E0B3D00F2E79
S11301A0FAE0CF2ED12CE12CF12CF02DCA01B901AB
S11301B0A7019601A7D02B013C01C501B40124E697
S11301C030E040E050E09ED0CA01B901A701960199
S11301D099D069837A838B839C83C501B401A70179
S11301E0960190D06D837E838F839887CA01B9016D
S11301F0A701960187D0ED81FE81E050FF4F208159
S1130200E2E1F1E02083DB01A050BF4F8C918183B8
S1130210A981BA81A050BF4F8C9180588283411428
S1130220510419F41092150106C0F201E050FF4F79
S113023080818093150182E191E07DDF82E191E08C
S113024028960FB6F894DEBF0FBECDBFDF91CF91D5
S1130250FF90EF90DF90CF90BF90AF909F908F90E2
S11302607F906F905F904F9008958FEF81BB8FE0E8
S113027084BB8FE382B983EE83B93DDFC12CD12CDB
S113028076018091100190911101892B79F485B345
S11302908F6085BB8FEB82BB2FEF83ED90E3215002
S11302A080409040E1F700C00000EBCF8091100146
S11302B090911101181619060CF580911001909176
S11302C0110181709078992324F401978E6F9F6FA8
S11302D00196019799F4460157012FEF821A920A69
S11302E0A20AB20AC701B6013DDF8FE39FE101977D
S11302F0F1F700C0000075016401C3CFC701B60166
S113030031DFBFCFA1E21A2EAA1BBB1BFD010DC01A
S1130310AA1FBB1FEE1FFF1FA217B307E407F507B1
S113032020F0A21BB30BE40BF50B661F771F881F8D
S1130330991F1A9469F760957095809590959B0123
S10F0340AC01BD01CF010895F894FFCF7B
S113034C3F065B4F666D7D277F67777C585E7971BE
S9030000FC
