:1000000045C0000060C000005EC000005CC0000091
:100010005AC0000058C0000056C0000054C0000084
:1000200053C0000050C000004EC000004CC0000093
:100030004AC0000048C0000046C0000044C00000A4
:1000400042C0000040C000003EC000003CC00000B4
:100050003AC0000038C0000036C0000034C00000C4
:1000600032C0000030C000002EC000002CC00000D4
:100070002AC0000028C0000026C0000024C00000E4
:1000800022C0000020C000001EC0000011241FBEBE
:10009000CFEFD0E1DEBFCDBF11E0A0E0B1E0EEEBED
:1000A000F1E000E00BBF02C007900D92A031B10754
:1000B000D9F721E0A0E1B1E001C01D92A231B20761
:1000C000E1F729D07AC09CCF1F920F920FB60F9202
:1000D00011248F939F9380911001909111010196AB
:1000E00081709078992324F401978E6F9F6F019609
:1000F00090931101809310019F918F910F900FBEEB
:100100000F901F90189589B7806889BF8AB780645F
:100110008ABF78940895CF93DF93CDB7DEB7609709
:100120000FB6F894DEBF0FBECDBF80E1E0E0F1E096
:10013000DE01119601900D928A95E1F78FEF81BB58
:100140008FE084BB12B880E883B9DDDF80911001B5
:1001500090911101892BD1F72AC085B38F6085BB9F
:1001600025B381E090E0042E02C0880F991F0A9405
:10017000E2F7822385BB80E090E013C0E1E0F0E08D
:10018000EC0FFD1FE80FF91F2081209522BB2FEFF8
:1001900033ED60E3215030406040E1F700C00000E3
:1001A00001968A30910554F34F5F5F4F02C040E0E3
:0E01B00050E0443051058CF2C9CFF894FFCFD7
:1001BE003F065B4F666D7D277F67777C585E797152
:00000001FF
